:020000040800F2
:10000000C05E00209D01000849370008CD3100087E
:1000100045370008870C0008B559000800000000AB
:10002000000000000000000000000000B5580008BB
:10003000A70D0008000000000F020008CD580008BE
:10004000B7010008B7010008B7010008B7010008B0
:10005000B7010008B7010008B7010008B7010008A0
:10006000B7010008B7010008B7010008B701000890
:10007000B7010008B7010008B7010008B701000880
:10008000B7010008B7010008B7010008B701000870
:10009000B7010008B7010008B7010008B701000860
:1000A000B7010008B7010008B7010008B701000850
:1000B000B7010008B7010008B7010008B701000840
:1000C000B7010008B7010008B7010008B701000830
:1000D000B7010008B7010008B7010008B701000820
:1000E000B7010008B7010008B7010008B701000810
:1000F000B7010008B7010008B7010008B701000800
:10010000B7010008594A0008B7010008B701000804
:10011000B7010008B7010008B7010008B7010008DF
:100120008D0C0008B7010008B7010008B7010008EE
:10013000B7010008B7010008B7010008B7010008BF
:10014000B7010008B7010008B7010008B7010008AF
:10015000B7010008B7010008B7010008B70100089F
:10016000B7010008B7010008B7010008B70100088F
:10017000B7010008B7010008B7010008000000003F
:10018000B7010008B7010008DFF80CD000F09AFBB7
:1001900000480047B5630008C05E0020064880475D
:1001A00006480047FEE7FEE7FEE7FEE7FEE7FEE75C
:1001B000FEE7FEE7FEE7FEE799590008890100081F
:1001C000EFF3108072B6704780F310887047254CAB
:1001D000254D25604FF0000484F30988234C4FF02F
:1001E00001052570224C4FF08055256062B6FEE770
:1001F00030B41F4C4FF08055256030BC704730B490
:100200001B4C4FF08055256030BC704700BF72B664
:10021000EFF3098048B1203880E8F00FA0F14000EA
:1002200080EC108B13490968086000B512488047BC
:100230005DF804EB114812490A7802700D48114923
:100240000A680260106890EC108B00F1400090E8A2
:10025000F00F20302EF0100E80F309884EF0040EBF
:1002600062B6704720ED00E00000FFFF8A08002022
:1002700004ED00E090080020994100087F0800206C
:1002800080080020980800202DE9F05F0546002036
:1002900092469B4688460646814640241BE02846F7
:1002A00041464746224600F091F953465A46C01A45
:1002B000914110D311461846224600F078F92D1AC4
:1002C00067EB01084F4622460120002100F06FF93C
:1002D00017EB00094E41201EA4F10104DFDC484663
:1002E00031462A464346BDE8F09FD2B201E000F80D
:1002F000012B491EFBD270470022F6E710B51346CA
:100300000A4604461946FFF7F0FF204610BD2DE9C6
:10031000FE4F81EA030404F0004421F00041009400
:100320004FF0000B23F0004350EA01045ED052EA84
:1003300003045BD0C3F30A54C1F30A552C44A4F25E
:10034000F3340194A0FB0254C1F3130141F4801172
:10035000C3F3130343F4801301FB024400FB034E79
:10036000840A970A44EA815447EA8357A4FB076842
:1003700002958D0A05FB07854FEA932C04FB0C546C
:100380002705029D4FEA065847EA1637B5EB0805E0
:100390006EEB070C870E920E47EA811742EA831232
:1003A000A7FB0201B6EB0B0164EB00042B0D43EA43
:1003B0000C335E1844EB1C50DA465146E7FB020151
:1003C000C5F313044FEA0B3343EA14534FEA0432E4
:1003D000019C43EA0603A4F10C040294009CCDE9BD
:1003E00000B400F049F903B0BDE8F08F00200146E9
:1003F000F9E72DE9F04D81EA030404F0004B21F008
:10040000004514464FF0000A23F0004150EA05026F
:1004100020D054EA01021DD0C5F30A570246C5F3A5
:100420001303C1F31300C1F30A5640F4801543F4DB
:100430008013A7EB0608101BD64608F2FD3873EBB5
:10044000050002D308F1010801E092185B41B8F100
:10045000000F03DA00200146BDE8F08D00204FF4C4
:100460008011064684460EE0171B73EB050705D383
:10047000121B63EB050306434CEA010C49084FEAE3
:10048000300092185B4150EA0107EDD152EA0300B7
:1004900012D082EA040083EA0501084305D0101B4C
:1004A000AB4106D20122002306E000224FF00043B8
:1004B00002E06FF0010253101AEB06004CEB0851FA
:1004C00010EB0A0041EB0B01BDE8F04D00F0C5B8A0
:1004D0000EB5C10F80EAE0700844CA07002140F25F
:1004E00033438DE80E000A460B4600F0C5F803B012
:1004F00000BDC1F30A5210B5C1F3130140F2FF333E
:1005000041F480119A4201DA002010BD40F23343D9
:100510009A42A2F2334203DC524200F057F810BD77
:10052000904010BD00F0004230F000400AD0C10DF4
:1005300001F56071C0F3160042EA0151C20840079C
:100540001143704700200146704701F0004330B46A
:1005500021F0004150EA010206D00A0DA2F56072B6
:10056000C1F31301002A02DC30BC00207047440FA5
:1005700044EAC104C100E01830BC00EBC25000F0F6
:1005800035B830B50B46014600202022012409E091
:1005900021FA02F59D4205D303FA02F5491B04FA3C
:1005A00002F52844151EA2F10102F1DC30BD202A1B
:1005B00004DB203A00FA02F1002070479140C2F1BA
:1005C000200320FA03F3194390407047202A04DBEC
:1005D000203A21FA02F00021704721FA02F3D040BC
:1005E000C2F1200291400843194670470029A8BF74
:1005F0007047401C490008BF20F00100704710B44C
:10060000B0FA80FC00FA0CF050EA010404BF10BC00
:10061000704749B1CCF1200421FA04F411FA0CF12D
:1006200018BF012121430843A3EB0C01CB1D4FEA66
:1006300000614FEA102042BF002010BC704700EB61
:10064000C35010440029A4BF10BC7047401C49008F
:1006500008BF20F0010010BC704710B5141E73F1E4
:10066000000408DA401C41F1000192185B411A4372
:1006700001D120F0010010BD2DE9F04D92469B46BE
:1006800011B1B1FA81F202E0B0FA80F22032904664
:10069000FFF78DFF04460F4640EA0A0041EA0B01CE
:1006A00053465A46084313D0114653EA010019D065
:1006B000C8F140025046FFF789FF05460E465046F6
:1006C00059464246FFF773FF084305D0012004E076
:1006D00020463946BDE8F08D0020054346EAE07625
:1006E0002C4337430A986305E40AA0EB0800002274
:1006F000FD0A44EA47540A3002D500200146E9E7E2
:10070000010510196941DDE9084500196941BDE895
:10071000F04DA2E72DE9FE4F804681EA0300C00FAD
:100720000C46009021F0004123F00045B8EB020098
:10073000A94105D24046214690461C460B4602463A
:1007400023F00040104347D0270DC7F30A00C3F33E
:100750000A510290401A019040286BDAC3F313004B
:1007600040F4801B0098924620B10023D2EB030A8C
:1007700063EB0B0B01985946C0F140025046FFF75E
:1007800016FF06460D4650465946019A00F0ACF851
:1007900010EB08006141002487EA115284EAE773F4
:1007A0001A4340D0009A62B3019A012A4FEA0752D5
:1007B00015DC001B61EB02014FF0004202EA075218
:1007C000CDE90042001C41F5801132462B46FFF76F
:1007D00053FF03B0BDE8F08F40462146F9E7001B08
:1007E00061EB0201001C41F5801300185B412018E9
:1007F000A2F5001747EB030140EAD570B6196D4129
:1008000011E06D084FEA360645EAC0754FEA075217
:10081000001B61EB0201001C41F5801149084FEA01
:1008200030000019514132462B4603B0BDE8F04F6D
:10083000FFF713BF0098012240000023D0EB020213
:1008400063EBE073009821464FEAE074B8EB0000D8
:1008500061EB0401E9E783F000435BE781F00041CD
:1008600058E7C1F30A52C1F3130140F2FF3341F4D8
:1008700080119A4202DA00200146704740F2334369
:100880009A42A2F2334202DC5242FFF79FBEFFF7C8
:100890008EBE000030B5041E71F1000404DB4FF081
:1008A0000044404264EB0101141E73F1000405DBB7
:1008B0001C464FF00043524263EB0403994208BFC9
:1008C000904230BD064C074D06E0E06840F0010361
:1008D00094E8070098471034AC42F6D3FFF758FC71
:1008E000706F0008906F0008202A06DBCB17203AB3
:1008F00041FA02F043EAE07306E041FA02F3D04025
:10090000C2F12002914008431946704770B58C1817
:1009100010F8015B15F0070301D110F8013B2A1113
:1009200006D110F8012B03E010F8016B01F8016B00
:100930005B1EF9D12B0705D40023521E0DD401F8FC
:10094000013BFAE710F8013BCB1A921C03E013F8C5
:10095000015B01F8015B521EF9D5A142D8D30020FA
:1009600070BD70B50546AC6B206C00F0500050BBFC
:10097000206C40F4007020642068806800F04050D3
:10098000E8B9207ED8B92068C06A00F4700020B1B0
:100990002068806800F4806088B92068406820F092
:1009A000200021684860206C20F480702064206C56
:1009B00000F4805018B9206C40F0010020642046FB
:1009C00000F0ECFA0BE0206C00F0100018B12046AB
:1009D00000F0E6FA03E0A06BC16C2846884770BDC2
:1009E00070B50546AC6B40202064606C40F004009C
:1009F0006064204600F0D4FA70BD70B50446A56B63
:100A0000284600F0CCFA70BD55494A6822F44032BD
:100A10004A604A6843681A434A600268526822F48E
:100A2000807203685A6002685368026943EA0222CE
:100A300003685A600268526822F0407203685A6084
:100A40000268526883681A4303685A6002689268B1
:100A500022F4006203689A6002689268C3681A43CD
:100A600003689A603F4B826A9A4218D00268926883
:100A700022F0706203689A6002689268836A1A437F
:100A800003689A600268926822F0405203689A6094
:100A900002689268C36A1A4303689A600BE00268AE
:100AA000926822F0706203689A600268926822F08D
:100AB000405203689A600268926822F0020203685A
:100AC0009A6002689368027E43EA420203689A6071
:100AD0002022125CA2B10268526842F400620368EC
:100AE0005A600268526822F4604203685A600268E1
:100AF0005368426A521E43EA423203685A6005E074
:100B00000268526822F4006203685A600268D26A7E
:100B100022F470020368DA620268D36A828B521E82
:100B200043EA02520368DA620268926822F40072B1
:100B300003689A600268936890F8302043EA422282
:100B400003689A600268926822F4806203689A607F
:100B500002689368426943EA822203689A60704798
:100B6000002301400100000F08B5002003F008F841
:100B70000B49086000BF12E00A4800F06BFB01223D
:100B80006946084800F0A4FA69460548006803F081
:100B90001DF8642300221146104603F03BFBEBE7EF
:100BA00000000020B04200204168491C41600178EB
:100BB000417070477047000010B504462146024856
:100BC00001F056FE10BD0000AC43002010B50448F3
:100BD00001F061FE042801D0012010BD0020FCE7D7
:100BE000AC43002010B5002400F014F8012801D017
:100BF000012010BD064801F06FFF044634B94FF4E0
:100C00000061034801F0FAFC00B101242046F0E73E
:100C1000AC43002008B5012000909DF8000008BDFD
:100C20002DE9F84304460D4616461F464FF00008CE
:100C300033462A4621460548009702F019F808B1C4
:100C40004FF001084046BDE8F8830000AC430020A7
:100C5000704700002DE9F84304460D4616461F462E
:100C60004FF0000833462A4621460548009702F017
:100C700069F908B14FF001084046BDE8F88300006B
:100C8000AC430020704700BFFEE7000010B50248EB
:100C900000F080FB10BD0000F842002001460878FB
:100CA00010381823B0FBF3F20848805CC865032AAB
:100CB00005D908686FF30900001D886503E008681E
:100CC0006FF309008865886D70470000506E00085A
:100CD000014600208A6A8B69CBB932B1012A0DD056
:100CE000022A03D0032A10D10EE000BFCB6A03F022
:100CF0008073B3F1807F00D1012007E0CB6AB3F1AC
:100D0000C07F00D1012001E000E000BF34E08B692A
:100D1000B3F5005F1AD132B1012A07D0022A03D0FD
:100D2000032A11D10AE000BF01200EE0CB6A03F0D4
:100D30008073B3F1807F00D1012006E0CB6AB3F16C
:100D4000C07F00D1012000E000BF15E032B1012AD0
:100D500005D0022A04D0032A0CD103E000BF00BF53
:100D6000012008E0CB6A03F08073B3F1807F00D1EB
:100D7000012000E000BF00BF704730B50468246860
:100D800024F4802405682C60046863608468402C27
:100D900004D10468A2600468E16003E00468A16013
:100DA0000468E26030BD7047704730B504460D46B8
:100DB00000222946204600F001F830BDF0B5034678
:100DC000012500241148807B02281CDA00200F4EE8
:100DD000B67B0E4FB8553846867B001D40F826304E
:100DE000001F867B0C3082553E46B07B461CBE738E
:100DF000044604F1300008703A2048702F208870B3
:100E00000020C87000252846F0BD0000B04E00202C
:100E100038B502460020009000BF92F83C0001283F
:100E200001D1022038BD012082F83C0000BF0868D3
:100E3000092816D91068C0680C780A3C04EB4405F0
:100E40000724AC40A0431468E0600C780A3C04EB33
:100E500044048868A0401468E46820431468E06093
:100E600013E0106800690C7804EB44050724AC40DB
:100E7000A043146820610C7804EB44048868A04007
:100E8000146824692043146820614868072817D231
:100E90001068406B0C79641E04EB84051F24AC4081
:100EA000A04314686063088880B20C79641E04EB68
:100EB0008404A0401468646B20431468606331E0CC
:100EC00048680D2817D21068006B0C79E41F04EBFA
:100ED00084051F24AC40A04314682063088880B2B6
:100EE0000C79E41F04EB8404A0401468246B2043B5
:100EF0001468206316E01068C06A0C790D3C04EB9E
:100F000084051F24AC40A0431468E062088880B2C6
:100F10000C790D3C04EB8404A0401468E46A20437F
:100F20001468E062194B1A4C1068A04206D1086898
:100F3000122803D1586840F480005860144C10689F
:100F4000A0421CD10868102802D00868112816D1C8
:100F5000586840F400005860086810280FD10D4808
:100F600000680D4CB0FBF4F000EB800040000090F6
:100F700002E00098401E009000980028F9D100BFC0
:100F8000002082F83C0000BF00BF4BE70023014077
:100F9000002001406008002040420F007047704769
:100FA0007047000070B5044600250CB9012070BDE3
:100FB0001549A06A884200D000BF206C30B9204695
:100FC00000F024F80020606484F83C00206C00F0FD
:100FD000100088B9206C20F4885040F00200206492
:100FE0002046FFF711FD00206064206C20F0020015
:100FF00040F00100206400E0012500BF002084F8DB
:101000003C0000BF2846D2E70100000F10B586B0B3
:101010000446142101A8FFF76FF928492068884287
:1010200049D100BF002000902548006840F480703E
:10103000234908600846006800F48070009000BFF3
:1010400000BF00BF002000901D481438006840F029
:1010500001001B49143908600846006800F00100CF
:10106000009000BF00BF02200190032002900020EA
:10107000039001A9134800F081FB1348134908604D
:1010800000204860002111488160C1604FF48061F8
:10109000016149004161890081610021C1610162F2
:1010A000416200F097FA08B1FFF77EFE00BF0748E3
:1010B000A063846300BF06B010BD000000200140A3
:1010C000443802400000024010640240F842002010
:1010D000F8B504460D4616460020009000BF94F86F
:1010E0003C00012801D10220F8BD012084F83C0019
:1010F00000BF2068806800F00100A0B92068806807
:1011000040F0010021688860494800684949B0FB07
:10111000F1F000EB4000009002E00098401E0090CB
:1011200000980028F9D12068806800F001000028AC
:101130007CD0206C40F20161884340F480702064D0
:101140002068406800F4806028B1206C20F40050D2
:1011500040F480502064206C00F48050B0F5805F33
:1011600004D1606C20F00600606401E0002060643F
:1011700000BF002084F83C0000BF2F4F2F48A16B18
:10118000C8632F48A16B08642E48A16BC8646FF038
:101190002200216808602068406840F08060216873
:1011A00048602068806840F4807021688860226808
:1011B00002F14C0133462A46A06B00F081FA7868B0
:1011C00000F01F0018BB20492068884213D01F4937
:1011D0002068884204D1381D006800F01F0050B11B
:1011E0001B492068884221D11348001D006800F087
:1011F0001F0010281AD22068806800F0405028B9DB
:101200002068806840F08040216888600EE00E49C8
:10121000206888420AD12068806800F0405028B9D0
:101220002068806840F080402168886000205BE78B
:101230006008002040420F000023014063090008BD
:10124000FB090008E10900080020014000210140DD
:101250000022014070B50446002500BF94F83C0010
:10126000012801D1022070BD012084F83C0000BF9C
:101270002068806820F0010021688860206880680C
:1012800000F00100A8B92068806820F4807021680F
:101290008860A06B00F014F805462068406820F0D4
:1012A000806021684860206C20F4885040F0010084
:1012B000206400BF002084F83C0000BF2846D2E72D
:1012C00070B50446A56D00F067FB064694F835003E
:1012D000022808D08020606500BF002084F8340018
:1012E00000BF012070BD2068006820F01600216852
:1012F00008602068406920F0800021684861206C07
:1013000008B9A06C28B12068006820F008002168A6
:1013100008602068006820F00100216808600FE084
:1013200000F03AFB801B05280AD92020606500BF29
:10133000002084F8340000BF032084F83500D1E792
:101340002068006800F001000028E9D194F85C10E2
:101350003F208840A86000BF002084F8340000BF10
:10136000012084F835000020BCE7014691F83500E3
:10137000022803D08020486501207047052081F8AD
:1013800035000868006820F001000A68106000203D
:10139000F3E70000F8B50446002000908C48006890
:1013A0004FF41651B0FBF1F7A56D2E6894F85C1060
:1013B00008208840304098B12068006800F00400A0
:1013C00070B12068006820F004002168086094F87B
:1013D0005C1008208840A860606D40F001006065E6
:1013E00094F85C1001208840304068B12068406962
:1013F00000F0800040B194F85C1001208840A860A3
:10140000606D40F00200606594F85C100420884034
:10141000304068B12068006800F0020040B194F8E4
:101420005C1004208840A860606D40F00400606596
:1014300094F85C1010208840304078B32068006831
:1014400000F0080050B394F85C1010208840A860A9
:101450002068006800F4802080B12068006800F4F3
:10146000002028B9206CC8B12046216C884715E0BF
:10147000A06C98B12046A16C88470FE020680068F6
:1014800000F4807028B92068006820F00800216806
:101490000860206C10B12046216C884794F85C10DD
:1014A000202088403040002865D02068006800F087
:1014B000100000285FD094F85C1020208840A860BD
:1014C00094F83500052828D12068006820F016001F
:1014D000216808602068406920F080002168486128
:1014E000206C08B9A06C28B12068006820F00800C2
:1014F0002168086094F85C103F208840A86000BF15
:10150000002084F8340000BF012084F83500206DED
:1015100010B12046216D8847F8BD2068006800F4AE
:10152000802080B12068006800F4002028B9606C39
:1015300010B12046616C88471DE0E06BD8B12046B1
:10154000E16B884717E02068006800F4807068B994
:101550002068006820F010002168086000BF0020AB
:1015600084F8340000BF012084F83500E06B10B12E
:101570002046E16B8847606D38B3606D00F0010074
:10158000F0B1052084F835002068006820F00100E3
:101590002168086000BF0098401C0090B84200D944
:1015A00005E02068006800F001000028F3D100BFCA
:1015B00000BF002084F8340000BF012084F835000B
:1015C000E06C10B12046E16C884700BFA4E7000042
:1015D000600800202DE9F0410446002500F0DCF908
:1015E000074614B90120BDE8F081606A00B100BF70
:1015F00000BF002084F8340000BF022084F83500CA
:101600002068006820F00100216808600AE000F00E
:10161000C3F9C01B052805D920206065032084F884
:101620003500E0E72068006800F001000028EED1F6
:101630002068056821480540D4E901010843E168B4
:1016400008432169084361690843A1690843E169C6
:101650000843216A08430543606A042803D1D4E99A
:101660000B0108430543206805602068456925F0A3
:101670000705606A0543606A04280DD1A06A054326
:10168000E06A48B12046FFF723FB28B1402060659F
:10169000012084F83500A6E7206845612046FFF761
:1016A000FDFA064694F85C103F208840B0600020A8
:1016B0006065012084F83500002094E73F8010F039
:1016C0002DE9F04704460D4616461F464FF0000828
:1016D000D4F8589000BF94F83400012802D10220B9
:1016E000BDE8F087012084F8340000BF94F835008D
:1016F000012825D1022084F83500002060653B4692
:10170000324629462046FFF738FB94F85C103F200C
:101710008840C9F808002068006840F01600216879
:101720000860206C28B12068006840F0080021683B
:1017300008602068006840F001002168086006E049
:1017400000BF002084F8340000BF4FF0020840467C
:10175000C6E7000070B5044600F01EF906462546AF
:10176000681C10B104480078054400BF00F014F96B
:10177000801BA842FAD370BD5C080020F8B5024671
:101780000B460025002400200021DCE0012606FA9B
:1017900001F51E6806EA0504AC4273D15E68012EAD
:1017A00008D05E68022E05D05E68112E02D05E68F9
:1017B000122E13D190684F000326BE40B0434F0055
:1017C000DE68BE4030439060506801268E40B043D2
:1017D0001E79C6F300168E4030435060D0684F002B
:1017E0000326BE40B0434F009E68BE403043D060E9
:1017F0005E68022E02D05E68122E13D1CF0802F16D
:10180000200656F827004E07F70E0F26BE40B043BD
:101810004F07FF0E1E69BE403043CF0802F120067D
:1018200046F8270010684F000326BE40B0431E79DB
:1018300006F003064F00BE40304310605E6806F0BD
:101840008056B6F1805F7DD100BF00260096404EE5
:10185000366846F480463E4F3E603E46366806F4A3
:101860008046009600BF00BF3A4E8F0856F827000A
:101870008E07370F0F26BE40B043374EB24202D11B
:10188000002624E05EE0354EB24201D101261EE082
:10189000334EB24201D1022619E0324EB24201D19A
:1018A000032614E0304EB24201D104260FE02F4E41
:1018B000B24201D105260AE02D4EB24201D10626E0
:1018C00005E02C4EB24201D1072600E008268F0722
:1018D0003F0FBE4030431F4E8F0846F82700264E6C
:1018E0003068A0435E6806F48036B6F5803F00D1CC
:1018F0002043214E3060361D3068A0435E6806F4F8
:101900000036B6F5003F00D120431B4E361D306037
:10191000361D3068A0435E6806F48016B6F5801F59
:1019200000D12043144E08363060361D3068A04385
:101930005E6806F40016B6F5001F00D120430E4E77
:101940000C363060491C1029FFF420AFF8BD0000B0
:1019500044380240083801400000024000040240C0
:1019600000080240000C0240001002400014024037
:1019700000180240001C0240003C0140024613696E
:101980000B400BB1012000E0002070470AB18161DB
:1019900001E00B0483617047014800687047000054
:1019A0005408002070B504460CB9012070BD94F8AD
:1019B0003D0028B9002084F83C00204600F08CF956
:1019C000242084F83D002068006820F00100216890
:1019D00008602068006840F40040216808602068C2
:1019E000006820F400402168086000F057FB0546BD
:1019F0005C496068884206D85B48854201D2012074
:101A000007E0002005E05948854201D2012000E0AE
:101A10000020012800D1C9E75548B5FBF0F6206841
:101A2000406820F03F003043216848604D496068BD
:101A3000884201D8701C07E04FF4967070434FF451
:101A40007A71B0FBF1F0401C2168096A21F03F0176
:101A500008432168086243496068884214D8681EB8
:101A600061684900B0FBF1F0401CC0F30B00042892
:101A700001D204203DE0681E61684900B0FBF1F02E
:101A8000401CC0F30B0034E0A06838B9681E6168E0
:101A900001EB4101B0FBF1F0401C0AE0681E6168F7
:101AA00001EBC10202EB0111B0FBF1F0401C40F46C
:101AB0008040C0F30B0008B901201AE0A06848B9C3
:101AC000681E616801EB4101B0FBF1F0401CC0F3FE
:101AD0000B000CE0681E616801EBC10202EB011112
:101AE000B0FBF1F0401CC0F30B0040F4804040F428
:101AF00000402168C9694CF6FF7291430843216890
:101B0000C861D4E9070108432168096821F0C001D0
:101B1000084321680860D4E90310084321688968F4
:101B200048F2FF329143084321688860D4E90501F7
:101B300008432168C96821F0FF0108432168C86093
:101B40002068006840F001002168086000202064DF
:101B5000202084F83D000020206384F83E0000BF70
:101B600024E70000A086010080841E0000093D00DB
:101B700040420F002DE9FC5F04460F46904699460F
:101B8000DDE90CAB0E9EFFF707FF054694F83D001C
:101B900020287DD1192301224D492046009501F0CE
:101BA000D3FB10B10220BDE8FC9F00BF94F83C00BD
:101BB000012801D10220F6E7012084F83C0000BF93
:101BC0002068006800F0010028B92068006840F033
:101BD0000100216808602068006820F40060216826
:101BE0000860212084F83D00402084F83E00002059
:101BF0002064C4F824A0A4F82AB0608D208535485C
:101C0000E0624B46424639462046CDE9006501F088
:101C1000FFFA08B10120C6E731E02A4631462046E6
:101C200001F037FC50B1206C042805D12068006811
:101C300040F40070216808600120B4E7606A007811
:101C400021680861606A401C6062208D401E20850A
:101C5000608D401E608520684069C0F3800070B1CF
:101C6000208D60B1606A007821680861606A401C5C
:101C70006062208D401E2085608D401E6085208D15
:101C80000028CAD12A463146204601F02FFB00E049
:101C90001CE050B1206C042805D12068006840F495
:101CA00000702168086001207DE72068006840F42A
:101CB000007021680860202084F83D00002084F82E
:101CC0003E0000BF84F83C0000BF6CE702206AE7DA
:101CD000020010000000FFFF10B586B0044614217A
:101CE00001A8FEF709FB1B49206888422FD100BFDD
:101CF000002000901848006840F002001649086073
:101D00000846006800F00200009000BF00BFC0203D
:101D100001901220029001200390032004900420DF
:101D2000059001A90D48FFF729FD00BF0020009094
:101D300009481030006840F400100749103108606D
:101D40000846006800F40010009000BF00BF06B015
:101D500010BD000000540040303802400004024032
:101D6000034800680349097808440149086070473E
:101D7000540800205C08002010B50D48006840F4AD
:101D800000700B4908600846006840F480600860F5
:101D90000846006840F480700860032000F0A2F854
:101DA000002000F007F800F02BF8002010BD000024
:101DB000003C024070B504460E4800784FF47A713A
:101DC000B1FBF0F00C490968B1FBF0F5284601F0D1
:101DD000E3F908B1012070BD102C07D20022214682
:101DE000501E00F041F80548046001E00120F2E7D0
:101DF0000020F0E75C080020600800205808002060
:101E000008B500BF002000900E48006840F48040F4
:101E10000C4908600846006800F48040009000BF4C
:101E200000BF00BF00200090081F006840F08050F5
:101E3000091F08600846006800F08050009000BF4D
:101E400000BF08BD4438024001460846002809DBAF
:101E500000F01F0301229A4043099B0003F1E02395
:101E6000C3F8002100BF70472DE9F05F80460D46A2
:101E70001646002703F0D8FD074639462A46334662
:101E800001F00700C0F1070ABAF1040F02D94FF0C0
:101E9000040A01E0C0F1070AD14600F1040ABAF1D0
:101EA000070F02D24FF0000A01E0A0F1030AD44666
:101EB0004FF0010A0AFA09FAAAF1010A0AEA020A2B
:101EC0000AFA0CFA4FF0010B0BFA0CFBABF1010B09
:101ED0000BEA030B4AEA0B042146404603F0ACFD33
:101EE000BDE8F09F00BF00F00702064B19684FF6EF
:101EF000FF031940044B0B4343EA0221014B1960D5
:101F000000BF70470CED00E00000FA0570B5044614
:101F10000D460CB9012070BD5848006800F00F0054
:101F2000A84209D255490D700846006800F00F001C
:101F3000A84201D00120EEE7207800F0020002283C
:101F40001DD1207800F00400042805D14C48006819
:101F500040F4E0504A490860207800F00800082862
:101F600005D14748006840F460404549086044484E
:101F7000006820F0F000A16808434149086020781B
:101F800000F00100A8B36068012807D13C48083878
:101F90000068C0F34040B8B90120BCE7606802287F
:101FA00002D06068032807D1354808380068C0F3BC
:101FB000406048B90120AEE7314808380068C0F3F6
:101FC000400008B90120A6E72D48006820F0030072
:101FD000616808432A490860FFF7DEFC064609E00D
:101FE000FFF7DAFC801B41F28831884202D90320D6
:101FF00091E707E02248006800F00C006168B0EB50
:10200000810FEDD11D48006800F00F00A84209D9EA
:102010001A490D700846006800F00F00A84201D070
:10202000012078E7207800F00400042807D1144844
:10203000006820F4E050E168084311490860207806
:1020400000F00800082808D10D48006820F460401E
:10205000216940EAC1000A49086000F02FF80849E8
:102060000968C1F30311074A515CC840064908607A
:1020700006480068FFF79EFE00204CE7003C024047
:1020800008380240586E00086008002058080020F8
:1020900001480068704700006008002000B5FFF7A5
:1020A000F7FF04490968C1F38221034A515CC84023
:1020B00000BD000008380240686E00082DE9F047B6
:1020C000002400250026A1462548006800F00C00E9
:1020D00020B1042805D008283AD105E0DFF8849023
:1020E00039E0DFF8849036E01D48001F006800F0FA
:1020F0003F041B48001F006800F4800078B11A48B4
:102100001749091F0968C1F38811A0FB0170014636
:10211000224600233846FEF7B7F805460EE0114880
:102120000F49091F0968C1F38811A0FB017001461E
:10213000224600233846FEF7A7F805460848001F48
:102140000068C0F30140401C4600B5FBF6F902E010
:10215000DFF8109000BF00BF4846BDE8F0870000E0
:10216000083802400024F40040787D01F8B50446A8
:102170000CB90120F8BD207800F00100002874D0CF
:10218000F948006800F00C0004280DD0F6480068FB
:1021900000F00C00082813D1F348001F006800F479
:1021A0008000B0F5800F0BD1EF4808380068C0F30D
:1021B0004040002859D06068002856D10120D9E756
:1021C00000BF6068B0F5803F08D1E7480838006874
:1021D00040F48030E449083908601EE06068B0F5DA
:1021E000A02F0DD1E0480838006840F48020DE4977
:1021F000083908600846006840F4803008600CE048
:10220000D9480838006820F48030D7490839086078
:102210000846006820F48020086000BF606890B124
:10222000FFF7BAFB054606E0FFF7B6FB401B642844
:1022300001D903209EE7CC4808380068C0F340402D
:102240000028F1D011E0FFF7A7FB054606E0FFF7F5
:10225000A3FB401B642801D903208BE7C248083840
:102260000068C0F340400028F1D1207800F002005F
:1022700002285FD1BC48006800F00C0058B1BA4891
:10228000006800F00C0008281CD1B748001F006847
:1022900000F48000B0B9B44808380068C0F34000CA
:1022A00020B1E068012801D0012063E7AE4808387A
:1022B000006820F0F800216940EAC100AA49083905
:1022C000086037E0E06800B30120A8490860FFF724
:1022D00063FB054606E0FFF75FFB401B022801D9C0
:1022E000032047E7A04808380068C0F340000028F2
:1022F000F1D09D480838006820F0F800216940EAD4
:10230000C10099490839086014E000209749086025
:10231000FFF742FB054606E0FFF73EFB401B0228A5
:1023200001D9032026E7904808380068C0F3400030
:102330000028F1D1207800F0080008282CD160692D
:10234000A8B101208A490860FFF726FB054606E090
:10235000FFF722FB401B022801D903200AE782482D
:102360006C300068C0F340000028F1D014E0002079
:102370007F490860FFF710FB054606E0FFF70CFBFE
:10238000401B022801D90320F4E677486C3000682E
:10239000C0F340000028F1D1207800F004000428A8
:1023A00070D1002770483830006800F0805090B934
:1023B00000BF002000906C483830006840F080502A
:1023C0006949383108600846006800F08050009084
:1023D00000BF00BF01276748006800F48070B0B9F3
:1023E0006448006840F4807062490860FFF7D4FADE
:1023F000054606E0FFF7D0FA401B022801D903206A
:10240000B8E65C48006800F480700028F2D000BF95
:10241000A068012808D154486830006840F00100E5
:102420005149683108601DE0A06805280DD14E486B
:102430006830006840F004004B4968310860084685
:10244000006840F0010008600CE047486830006810
:1024500020F001004449683108600846006820F017
:102460000400086000BFA068A8B1FFF795FA054610
:1024700009E0FFF791FA401B41F28831884202D906
:10248000032077E626E0384868300068C0F3400053
:102490000028EED013E0FFF77FFA054608E0FFF7CB
:1024A0007BFA401B41F28831884201D9032061E662
:1024B0002D4868300068C0F340000028EFD1012F9C
:1024C00007D129483830006820F08050264938313B
:1024D000086000BFA069002845D02348006800F0CC
:1024E0000C0008285DD0A069022845D100201F49B2
:1024F0000866FFF751FA054606E0FFF74DFA401B64
:10250000022801D9032035E6174808380068C0F3CF
:1025100040600028F1D1D4E907010843616A40EA2C
:1025200081110122A06AC2EB500041EA00412C2037
:10253000005D41EA00600C49091F086001200B4959
:102540000866FFF729FA054606E0FFF725FA401B63
:10255000022801D903200DE6034808380068C0F3BB
:1025600040600028F1D03FE00838024000004742B8
:10257000800E47420070004000201C490866FFF7AB
:102580000BFA054606E0FFF707FA401B022801D9BF
:102590000320EFE516480068C0F340600028F2D140
:1025A00022E0A069012800D1E4E51148001D066879
:1025B00006F48001E069814214D106F03F01206AEF
:1025C00081420FD147F6C0703040616A884209D11C
:1025D00006F44031A06A814204D106F07061E06ADD
:1025E000814201D00120C5E50020C3E5000047423B
:1025F0000038024000B5FEF7DDFA00BD70B58AB0C4
:1026000004460D46032084F83400606C032820D073
:10261000B5F5805F04D1A06B40F08050A0631CE052
:10262000B5F5006F07D1204603F069F80646A06BA8
:102630003043A06311E03DB9204603F02CF8064674
:10264000A06B3043A06308E0A06B40F00060A06383
:1026500003E0A06B40F08050A063A06B38B110483D
:1026600021688863012084F834000AB070BD606876
:102670000490A0680590E06806900795606908904E
:10268000A069099007A807C88DE80700206804A979
:102690000EC902F0E9F9012084F834000020E4E7D3
:1026A000FF0540007047000010B50246506E800FD5
:1026B0000870506EC0F383604870506EC0F30160C4
:1026C0008870506E000CC870B2F86400000A08717F
:1026D00092F864004871906E000DC880906EC0F34F
:1026E000034008726820805AC0F3C03048726820E6
:1026F000805AC0F3803088726820805AC0F340301E
:10270000C8726820805AC0F30030087300204873F4
:10271000506C002836D16820805A8005030DD06E99
:1027200043EA90700861D06EC0F3C2600875D06E45
:10273000C0F302604875D06EC0F342508875D06E09
:10274000C0F38240C875D06EC0F3C2300876086905
:10275000401C50650B7E506D03F007039B1C012449
:102760009C4060435065087A00F00F0301209840B8
:102770009065D2E915035B0A5843D0654FF40073A6
:10278000136621E0506C012813D16820805C80061C
:10279000830AD06E43EA104008610869401C830236
:1027A0005365536DD3654FF400739365936D136652
:1027B0000AE02E4813689863906B40F08050906355
:1027C000012082F8340010BD6C20805AC0F38030A4
:1027D00001F8190F6C20805AC0F3C61048706C20A5
:1027E000805C00F07F008870106FC00FC870106FA1
:1027F000C0F341700871106FC0F382604871106FB0
:10280000C0F383508871106FC0F34050C87100202E
:102810000872106FC0F3004048727020805AC0F3F5
:10282000C03088727020805AC0F38030C872702027
:10283000805AC0F3403008737020805AC0F30030D3
:1028400048737020805AC0F3812088737020805AAA
:10285000C0F30120C8737020805CC0F34600087488
:102860000120487419390020ADE70000FF05400041
:102870000246506C0860906C4860D06C8860106DA7
:10288000C860506D0861906D4861D06D8861106EB0
:10289000C86100207047F8B50446002000906946E2
:1028A000204602F0E0FE054615B1A06B2843A06368
:1028B0000098C0F343263046F8BD000070B50446CA
:1028C000256B2068406BC0F3C03030B105F00800C4
:1028D00018B1204602F0A2FEF8E02068406BC0F379
:1028E0000020002862D04FF480702168886320683F
:1028F000C06B4CF23A3188432168C8632068C06AD3
:1029000020F001002168C86205F0080038B305F026
:10291000020010B905F0200050B1206802F064FAFE
:1029200006462EB1A06B3043A0632046FFF7BAFEE7
:1029300040F23A5021688863012084F83400002076
:10294000206305F0010010B905F0020018B120461F
:1029500000F0EEFABAE0204600F0EFFAB6E005F03B
:1029600080000028B8D005F0200050B1206802F0A7
:102970003BFA06462EB1A06B3043A0632046FFF71A
:1029800091FE05F001000028A6D105F00200002804
:10299000A2D12068C06A20F008002168C862012026
:1029A00084F83400204600F0C8FA8FE02068406BBD
:1029B000C0F3803030B105F0080018B1204602F0B5
:1029C000D2FE83E02068406B40F23A21084008B113
:1029D000012000E00020002878D02068406BC0F380
:1029E000400018B1A06B40F00200A0632068406B6B
:1029F000C0F3C00018B1A06B40F00800A0632068CD
:102A0000406BC0F3401018B1A06B40F02000A063F1
:102A10002068406BC0F3001018B1A06B40F01000AC
:102A2000A0632068406BC0F3402018B1A06B40F059
:102A30000800A06340F23A70216888632068C06B88
:102A400040F23A3188432168C863206802F0CCF92B
:102A5000A16B0843A06305F0080040B1012084F891
:102A60003400002020632046FFF71CFE2EE005F016
:102A7000800000B305F0100010B905F0200050B13F
:102A80001348E16B0865E06BFEF76FFC98B1E06BF3
:102A900002F01EFC1AE005F0010010B905F002007A
:102AA00050B10C48216C0865206CFEF75EFC10B13B
:102AB000206C02F0E9FB09E00020A063012084F80B
:102AC0003400002020632046FFF794FD70BD000015
:102AD000D15200088952000810B504460CB90120F3
:102AE00010BD94F8340020B900202077204600F073
:102AF00053F8032084F83400204600F00BF808B1A6
:102B00000120EDE70020A0632063012084F8340059
:102B10000020E5E770B58AB00446002004900590D7
:102B20000690079008907620099007A807C88DE8BE
:102B30000700206804A90EC901F096FF064616B1E9
:102B400001200AB070BD002012490860206801F021
:102B5000A5FF01200F49A039C1F8A000204602F0CE
:102B6000F7FC05463DB1012084F83400A06B2843F2
:102B7000A0630120E5E7204602F068FC05463DB170
:102B8000012084F83400A06B2843A0630120D8E71B
:102B90000020D6E7A080254210B586B00446142157
:102BA00001A8FDF7A9FB2E492068884255D100BF36
:102BB000002000902B48006840F40060294908601C
:102BC0000846006800F40060009000BF00BF00BF2E
:102BD0000020009023481438006840F00400214988
:102BE000143908600846006800F00400009000BF37
:102BF00000BF00BF002000900846006840F00800B9
:102C000008600846006800F00800009000BF00BFA0
:102C10004FF4F8500190022002900020039003200E
:102C200004900C20059001A90F48FEF7A7FD042091
:102C300001900220029000200390032004900C20B9
:102C4000059001A90948FEF799FD0022114631209F
:102C5000FFF70AF93120FFF7F7F806B010BD0000C2
:102C6000002C01404438024000080240000C0240A1
:102C70002DE9FF4F89B004468B469946DDF858A0F0
:102C8000FEF78AFE02900B9800905D46BBF1000FA4
:102C900007D1A06B40F00060A06301200DB0BDE83B
:102CA000F08F94F8340001287ED10020A0630098B2
:102CB00000EB0901E06D814205D9A06B40F0007086
:102CC000A0630120EAE7032084F834000020216893
:102CD000C862606C012802D00098400200904FF456
:102CE0000071206801F03CFF8046B8F1000F0AD067
:102CF0008E4821688863A06B40EA0800A063012029
:102D000084F83400CAE74FF0FF3003904FEA4920BF
:102D1000049090200590022006900020079001204A
:102D2000089003A9206801F072FEB9F1010F07D9DC
:102D3000022020632068009901F07AFF804606E0B7
:102D4000012020632068009901F08EFF8046B8F1D1
:102D5000000F0DD0754821688863A06B40EA080019
:102D6000A063012084F8340000202063012095E74F
:102D7000049E3AE02068406B00F40040F0B1EEB1F0
:102D80000020019017E0206801F091FE07462F70A7
:102D90006D1C761E380A28706D1C761E380C287043
:102DA0006D1C761E380E00E0BAE028706D1C761E91
:102DB0000198401C019001980828E4D3FEF7ECFD2F
:102DC0000299401A504502D2BAF1000F0DD157486E
:102DD00021688863A06B40F00040A063012084F864
:102DE000340000202063032058E72068406B40F245
:102DF0002A3108400028BDD02068406B00F4807064
:102E0000D0B1B9F1010F17D9606C032814D0206834
:102E100001F0EAFF8046B8F1000F0DD04348216869
:102E20008863A06B40EA0800A063012084F83400A6
:102E300000202063012031E72068406B00F008008B
:102E400068B13A4821688863A06B40F00800A0632D
:102E5000012084F834000020206301201EE7206850
:102E6000406B00F0020068B1304821688863A06BB5
:102E700040F00200A063012084F8340000202063A9
:102E800001200BE72068406B00F0200068B1274864
:102E900021688863A06B40F02000A063012084F8C3
:102EA0003400002020630120F8E629E0206801F0CA
:102EB000FEFD07462F706D1C761E380A28706D1CAB
:102EC000761E380C28706D1C761E380E28706D1C0E
:102ED000761EFEF761FD0299401A504502D2BAF102
:102EE000000F0DD1114821688863A06B40F00040AD
:102EF000A063012084F83400002020630120CDE687
:102F00002068406B00F4001008B1002ECED140F2D2
:102F10003A5021688863012084F834000020BDE61F
:102F2000A06B40F00050A0630120B7E6FF05400011
:102F300010B50446FDF78CFE10BD00B5FDF7A2FEEE
:102F400000BD00002DE9F04F89B004468946934644
:102F50009846FEF721FD0290DA464E46B9F1000F81
:102F600007D1A06B40F00060A063012009B0BDE86C
:102F7000F08F94F8340001287ED10020A0630AEB82
:102F80000801E06D814205D9A06B40F00070A0639C
:102F90000120EBE7032084F8340000202168C86298
:102FA000606C012801D04FEA4A2A4FF40071206872
:102FB00001F0D6FD05464DB1764821688863A06BC7
:102FC0002843A063012084F83400CFE74FF0FF309E
:102FD00003904FEA4820049090200590002006902E
:102FE00007900120089003A9206801F010FDB8F1B6
:102FF000010F07D9202020635146206801F012FFFD
:10300000054606E0102020635146206801F026FFA7
:10301000054665B15F4821688863A06B2843A063BB
:10302000012084F834000020206301209EE7049FE3
:1030300043E02068406B00F4804040B33FB3002081
:10304000019021E030780090761C7F1E3078009946
:1030500041EA00200090761C7F1E3078009941EAFA
:1030600000400090761C7F1E3078009941EA006095
:103070000090761C7F1E00E085E06946206801F024
:103080002EFD0198401C019001980828DAD3FEF724
:1030900083FC0299411A1298814201D2129860B9B8
:1030A0003C4821688863A06B2843A063012084F812
:1030B000340000202063032058E72068406B40F272
:1030C0001A3108400028B4D02068406B00F48070AA
:1030D000B8B1B8F1010F14D9606C032811D0206881
:1030E00001F082FE054665B12A4821688863A06B1D
:1030F0002843A063012084F83400002020630120CD
:1031000034E72068406B00F0080068B1214821686E
:103110008863A06B40F00800A063012084F83400AD
:1031200000202063012021E72068406B00F00200AE
:1031300068B1184821688863A06B40F00200A06362
:10314000012084F834000020206301200EE720686D
:10315000406B00F0100068B10E4821688863A06BD6
:1031600040F01000A063012084F8340000202063A8
:103170000120FBE640F23A5021688863012084F880
:1031800034000020F2E6A06B40F00050A063012064
:10319000ECE60000FF05400070B504462546681EB9
:1031A000B0F1807F01D301200FE0681E4FF0E021D5
:1031B00048610F214FF0FF3002F03EFC00204FF03D
:1031C000E021886107200861002070BD00BFFEE794
:1031D000014608684069C0F38020B0B16FF4806098
:1031E0000A68506100200863202081F83D0000201B
:1031F00081F83E00086C40F00400086400BF002025
:1032000081F83C0000BF012070470020FCE700006F
:103210002DE9F8430446884615469946DDE90867D6
:103220002068006840F480702168086033460022FE
:103230004FF001112046009700F086F850B1206849
:10324000006800F4807010B14FF400702064032017
:10325000BDE8F88308F0FE00216808613B4632466D
:103260002149204600F0B3F808B10120F0E700BF83
:1032700000200090206840690090206880690090DC
:1032800000BF00BF3A463146204600F002F950B177
:10329000206C042805D12068006840F40070216883
:1032A00008600120D4E7B9F1010F03D1E8B2216829
:1032B000086117E0C5F30720216808613A463146E6
:1032C000204600F0E6F850B1206C042805D12068B3
:1032D000006840F40070216808600120B8E7E8B297
:1032E000216808610020B3E70200010070B50446C0
:1032F0000D46164620E02046FFF76AFF08B1012080
:1033000070BD681CC0B1FEF747FB801BA84200D807
:1033100095B900202063202084F83D00002084F827
:103320003E00206C40F02000206400BF002084F8A4
:103330003C0000BF0120E3E720684069C0F3800043
:103340000028D8D00020DBE72DE9F04104460D46E7
:1033500017461E46DDF818801CE0701CD0B1FEF741
:103360001BFBA0EB0800B04200D89EB900202063F0
:10337000202084F83D00002084F83E00206C40F0BE
:103380002000206400BF002084F83C0000BF012022
:10339000BDE8F081C5F3074001280AD120684069E3
:1033A000A9B20840A9B2884201D101200BE0002057
:1033B00009E020688069A9B20840A9B2884201D119
:1033C000012000E00020B842C7D00020E0E72DE94E
:1033D000F04104460D4616461F463DE02068406910
:1033E000C0F38020E8B12068006840F400702168D4
:1033F00008606FF48060216848610020206320200D
:1034000084F83D00002084F83E00206C40F0040069
:10341000206400BF002084F83C0000BF0120BDE80C
:10342000F081701CC0B1FEF7B7FAC01BB04200D8E3
:1034300096B900202063202084F83D00002084F805
:103440003E00206C40F02000206400BF002084F883
:103450003C0000BF0120E2E7C5F3074001280AD184
:1034600020684069A9B20840A9B2884201D1012070
:103470000BE0002009E020688069A9B20840A9B2E9
:10348000884201D1012000E000200028A6D00020C1
:10349000C5E770B504460D46164620E02046FFF706
:1034A00097FE08B1012070BD681CC0B1FEF774FA28
:1034B000801BA84200D895B900202063202084F802
:1034C0003D00002084F83E00206C40F02000206485
:1034D00000BF002084F83C0000BF0120E3E7206823
:1034E0004069C0F3C0100028D8D00020DBE70000FE
:1034F0001FB50020009001900290039015481649D6
:1035000008604FF4803048600021134881600161F9
:10351000017680F82010C162104981620021C160EB
:103520000121C161002180F8301001214161FDF7C6
:1035300039FD08B1FDF738FC01200090019007200B
:10354000029069460448FDF763FC08B1FDF72CFCC6
:103550001FBD000000200140B04200200100000F0C
:1035600008B500BF002000900A48006840F48000C1
:10357000084908600846006800F48000009000BF19
:1035800000BF002211463820FEF76EFC3820FEF7FF
:103590005BFC08BD3038024010B503490348FDF715
:1035A00004FC0349087010BD4D0800203C6E000863
:1035B0004C08002000B587B0142102A8FCF79CFE3F
:1035C00000BF002001904448006840F010004249CC
:1035D00008600846006800F01000019000BF00BFBE
:1035E00000BF002001900846006840F00400086019
:1035F0000846006800F00400019000BF00BF00BF53
:10360000002001900846006840F0800008600846ED
:10361000006800F08000019000BF00BF00BF0020E4
:1036200001900846006840F0010008600846006804
:1036300000F00100019000BF00BF00BF002001901A
:103640000846006840F0080008600846006800F07E
:103650000800019000BF00BF00BF00200190084695
:10366000006840F0020008600846006800F00200B0
:10367000019000BF00BF002206211848FEF786F91E
:103680000620029001200390022004900020059063
:1036900002A91248FEF772F8082002900020039059
:1036A000049002A90D48FEF769F84FF4807002906B
:1036B000002003900120049002A90948FEF75EF85B
:1036C00001200290002003900120049002A90348E9
:1036D000FEF754F807B000BD303802400010024039
:1036E0000004024010B50B480B4908600B484860C5
:1036F000002109488160C1604FF4804101610021CF
:1037000041618161C1610162FEF74CF908B1FDF7C9
:103710004BFB10BD0054004058430020801A0600A7
:10372000064807490860002048600021044881607D
:10373000C16001614161042181617047002C014039
:10374000AC43002000BFFEE7704710B5002000F03A
:103750003BF810BD2DE9F05F06460F4690461C462B
:10376000DDF828A04FF0000BE11704EB5171C910F0
:10377000A4EBC10131B92046E11704EB5171C1F34B
:10378000C70506E02046E11704EB5171C910491C3A
:10379000CDB23D4614E02946304600F08AF8B146E5
:1037A0000AE059460BF1010B1AF8010002F016F974
:1037B00009F1010000F0FF09C145F2DB681CC5B248
:1037C000A542E8DBBDE8F09F70B50646002415E091
:1037D00004F1B001C8B202F0EFF8002002F0ECF8FA
:1037E000102002F0E9F8002504E0304602F0F6F877
:1037F000681CC5B2802DF8DB601CC4B2082CE7DB66
:1038000070BD10B5AE2002F0D7F8D52002F0D4F884
:10381000802002F0D1F8A82002F0CEF81F2002F09C
:10382000CBF8D32002F0C8F8002002F0C5F8402001
:1038300002F0C2F88D2002F0BFF8142002F0BCF8AC
:10384000202002F0B9F8022002F0B6F8A12002F020
:10385000B3F8C82002F0B0F8DA2002F0ADF8022088
:1038600002F0AAF8812002F0A7F88F2002F0A4F855
:10387000D92002F0A1F8F12002F09EF8DB2002F03E
:103880009BF8402002F098F8A42002F095F8A620BA
:1038900002F092F82E2002F08FF8AF2002F08CF8A0
:1038A000642300221146104600F0B4FCFFF74DFFE0
:1038B00010BD70B504460D4605F1B001C8B202F066
:1038C0007BF8102141EA141002F076F804F00F01A1
:1038D00041F0010002F070F870BD00002DE9F047E2
:1038E0002DED048B82B005460E4691469A460E9FFA
:1038F00040F2D6681F4801780078401C1D4A1070BD
:10390000102905DA1C48008838441B4908802BE040
:10391000194800880011184908800988A1EB08009F
:10392000FCF7D6FD41EC190B9FED140B53EC102B5B
:10393000FCF75FFD41EC180BFCF7DBFDC4B20D2C6E
:1039400000DD0D24002C00DA00240E4800EB0410EA
:1039500053464A46314600902846FFF7FBFE0020BA
:10396000044908700449088002B0BDEC048BBDE82E
:10397000F08700004A080020480800205C8FC2F54C
:1039800028DC3140080000202DE9F0470646894632
:1039900017469A464FF0000800240025BAF1010F9F
:1039A00003D0BAF1020F5ED125E020E0785D203827
:1039B00000F0FF087E2E04DD002609F1010000F072
:1039C000FF0949463046FFF774FF002409E008EB81
:1039D0004801264A02EB4101085D01F0FFFF601C2F
:1039E000C4B2062CF3DBB01DC6B2681CC5B2785D4C
:1039F0000028DBD137E032E0785D203800F0FF08A6
:103A0000782E04DD002609F1010000F0FF09494687
:103A10003046FFF74EFF002407E004EB0811144A7C
:103A2000505C01F0DBFF601CC4B2082CF5DB09F12F
:103A30000100C1B23046FFF73CFF002408E004EB70
:103A4000081108310A4A505C01F0C8FF601CC4B27A
:103A5000082CF4DB06F10800C6B2681CC5B2785D1C
:103A60000028C9D100BF00BFBDE8F0872466000868
:103A70004C68000810B500F013F800F041FD00F0AC
:103A800069FD00F089FD00F011FD00F0D1FC00F0AF
:103A90001DFE00F0C1FD00F0E7FD00F002F810BDD2
:103AA0007047704706480078012808D1054800781B
:103AB000FF2804D203480078401C02490870704770
:103AC0008A0800207D08002010B500241A480078DC
:103AD000012830D1FCF774FB04461848007820B167
:103AE00016480078401E1549087014480078F8B947
:103AF00013480078E0B900F04BFE124812490978EB
:103B000050F82100114908600F48007810490978E1
:103B100088420DD00D480068806B401C0B49096835
:103B200088630C480068401C0A490860FCF767FB82
:103B30002046FCF749FB10BD8A0800207D080020C4
:103B40007E080020484900208008002098080020B6
:103B50007F0800206408002070B504460026207805
:103B6000012801D0002070BDFCF72AFB06466568DD
:103B7000002060603046FCF727FB2846F3E7000092
:103B800070B5054600260F48007808B1002070BDCA
:103B9000FCF716FB06460C480468006820B10A488A
:103BA00000684068084908603046FCF70DFB3CB1EE
:103BB00001202070002020816560204600F029FC53
:103BC0002046E4E77D0800206808002070B5044620
:103BD0000D4600262078012801D0012070BDFCF799
:103BE000EFFA0646A07A60B1002302222946204659
:103BF00000F0B8FB3046FCF7E7FA00F08FFD00203C
:103C0000ECE7606820B13046FCF7DEFA1420E5E707
:103C100065603046FCF7D8FA0020DFE710B50B48A6
:103C2000007890B900F0B4FD09480078094908709F
:103C300009480749097850F82100084908600846F2
:103C4000006807490860FCF7C2FA10BD8A08002026
:103C5000800800207F0800204849002098080020A4
:103C600090080020704700002DE9FE4F06460F46E1
:103C700090461C464FF00009FCF7A2FA81461F4807
:103C8000007828B14846FCF79FFA3C20BDE8FE8F3B
:103C90001B4850F8240060BB0120194941F824005A
:103CA0004846FCF791FA002342463946304600F078
:103CB000B5F9824600200090019003460246514625
:103CC0000290204600F07AFD054635B90D4800788F
:103CD00001280CD100F022FD09E0FCF771FA8146C1
:103CE0000020074941F824004846FCF76DFA2846B1
:103CF000CCE74846FCF768FA2820C7E77D08002093
:103D0000484900208A0800202DE9F04F85B08146FF
:103D10008A4693461C46DDE90F78129D00200390E9
:103D2000FCF74EFA03902348007830B10398FCF773
:103D30004BFA3C2005B0BDE8F08F1F4850F8240036
:103D400088BB01201C4941F824000398FCF73CFA89
:103D50002A464146384600F04DFE2B465A4651460B
:103D6000484600F05BF904901198CDE90080029577
:103D70003A4620460E9B049900F020FD064636B9CF
:103D80000E48007801280CD100F0C8FC09E0FCF7CF
:103D900017FA03900020084941F824000398FCF723
:103DA00013FA3046C6E7FFE70398FCF70DFA282020
:103DB000C0E700007D080020484900208A08002054
:103DC000704700002DE9F04105460027474800787C
:103DD00010B14020BDE8F0813F2D01D13E20F9E730
:103DE000FCF7EEF90746FF2D03D14148006890F833
:103DF0003250404850F8254024B93846FCF7E4F9E1
:103E00004320E7E7012C04D13846FCF7DDF93D20DB
:103E1000E0E714F8340F3849085C6178884321786A
:103E2000354A505414F834091146085C30B994F8F6
:103E3000361032480078884330490870E06918B17C
:103E40002046E16900F0D0FA666A16B1304600F00B
:103E50001BFB0020E06284F8300084F83100284821
:103E60000078FF2804D226480078401C24490870B6
:103E70003846FCF7A9F900F074FAFCF7A1F90746F7
:103E80001F48007820B11E480078401E1C49087069
:103E9000204600F041F81B480078401E1949087080
:103EA0000020144941F82500A06930B9002061695B
:103EB000886115496069086005E0D4E90501486139
:103EC000D4E9051088611148006860610F480460FA
:103ED0000FA0E0643846FCF777F90E480078012817
:103EE00001D100F01BFC002074E700007D080020D9
:103EF0009008002048490020820800208108002006
:103F00007E0800208B0800209C08002094080020D8
:103F10003F0000008A080020704770472DE9F041FB
:103F200006460F4614464FF000081548007818B1B1
:103F300012202070BDE8F081FCF742F98046FF2E88
:103F400003D11048006890F832600F4850F82650AE
:103F50002DB94046FCF738F943202070EAE7012DDF
:103F600005D14046FCF730F943202070E2E7EF64CA
:103F70004046FCF729F90020207000BFDAE7000076
:103F80007D080020900800204849002070477047B5
:103F90002DE9F04707460D464FF0000A0020286043
:103FA0006860FCF70DF98246FF2F03D119480068BD
:103FB00090F83270184850F827402CB95046FCF75A
:103FC00003F94320BDE8F087012C04D15046FCF7EB
:103FD000FBF84320F6E7207C00F0010020B95046B2
:103FE000FCF7F2F84520EDE70026D4F80C90D4F861
:103FF00008805046FCF7E8F800E0761C58F8041BEF
:104000000029FAD0B0002860A9EB060080006860A3
:104010000020D7E79008002048490020F0B504466A
:104020000D4600211046002606600027061F304678
:10403000376000BF04E00027061F30463760491C88
:104040001029F8DB4FF08077061F30463760061FD7
:1040500030463460254F061F304637604FF0123728
:10406000061F304637604FF00337061F3046376073
:104070004FF00237061F304637607F10061F30466C
:104080003760061F304635604FF01137061F304647
:1040900037604FF01037061F304637604FF0093752
:1040A000061F304637604FF00837061F304637602E
:1040B0004FF00737061F304637604FF00637061FB0
:1040C000304637604FF00537061F304637604FF0F7
:1040D0000437061F30463760002104E00027061F22
:1040E00030463760491C1029F8DBF0BD194900083B
:1040F0002DE9F04105464FF00008FCF761F88046D5
:10410000FF2D05D12048006890F83250012608E0C4
:104110001D48006890F83200A84201D1012600E055
:1041200000261A4850F825402CB94046FCF74CF8B8
:104130004820BDE8F081012C04D14046FCF744F84A
:104140004320F6E794F834701148C05D94F83510B8
:1041500088430F49C8550846C05D30B994F83610F9
:104160000C48007888430B49087094F8300040F000
:10417000080084F830004046FCF726F8012E01D1F3
:1041800000F0CCFA0020D4E7900800204849002035
:1041900082080020810800207047000070B50546A5
:1041A00000261748007800B170BD1648007800B1AD
:1041B000FAE71DB3FCF704F806461348006890F8C8
:1041C00034401248005D1049096891F83510884361
:1041D0000E4908550846005D40B90B48006890F844
:1041E00036100B4800788843094908700648006873
:1041F000C5623046FBF7E8FF00F090FA00BFD3E756
:104200007D0800207E080020900800208208002001
:10421000810800202DE9F04105460E4617461C4650
:104220001248007810B15520BDE8F08110480078A0
:1042300008B13220F8E74FF47A7060434FF47A7196
:10424000B0FBF1F14FF461606843C6EB061200EB7E
:104250008200384400EB4002C2EBC01001EBC00802
:104260004046FFF79BFF0020DEE700007D080020AE
:104270007E08002070B5002600F072F8FBF7A0FF62
:10428000064631480068401C2F4908603046FBF75D
:104290009BFF2E480078012853D12D48007820B18B
:1042A000012804D0022809D103E001250BE00025F4
:1042B00009E0012501202649087004E001250020BD
:1042C0002349087000BF00BF05B970BD21480468CC
:1042D00033E0FBF775FF0646E06A50B3E06A401E24
:1042E000E062E06A28BB94F8300000F0370040B18B
:1042F00014F8300F00F0C800207001206070303CCE
:1043000002E0002084F8310094F8300000F008004A
:1043100078B93434A0781049097808430E490870F8
:1043200020780E49085C6178084314F834190B4A68
:10433000505464693046FBF747FF94F832003F2839
:10434000C7D100BFC1E70000A80800208A080020EC
:10435000A00800209C08002081080020820800207E
:10436000704770472DE9F04F05460F469046994635
:10437000A87A19490E5C05F10B00805D11F800B0B8
:104380000BEBC60000F0FF0A144850F82A4000204A
:104390002034E0602760207C20EA0800207484F844
:1043A0001190207C203C00F0080068B994F8360099
:1043B0000B49097808430A4908700A48805D94F857
:1043C00035100843074988552946204600F00CF867
:1043D0005046BDE8F08F0000706E0008484900208C
:1043E000810800208208002010B590F8342001F1E7
:1043F0000B039B5C90F83540A34301F10B04A354DD
:1044000023469B5C23B98B7A90F83640A3438B728A
:1044100010BD014600228A72002005E0002301F150
:104420000B021354421CD0B20828F7D37047000087
:104430002DE9F0415021114800F03EF900250DE032
:10444000681C86B20D4800EB051400EB061700202F
:10445000207067600AA0E060681C85B2042DEFD36D
:10446000064800EB051400202070606004A0E060A6
:10447000024804490860BDE8F0810000F8440020CB
:104480003F0000006C08002030B501464A6808680B
:104490002AB9CC68606028B10025456002E0106050
:1044A00000B142608B6800255D6230BD70B5C821E7
:1044B000114800F001F900230FE0581C85B203EB0E
:1044C00083000D4901EB800405EB850001EB8006BC
:1044D000002020706660581C83B2092BEDD303EBDB
:1044E0008300054901EB80040020207060600846CD
:1044F0000249086070BD00003044002068080020B8
:1045000000200A4908600A4908700A4908700A49E7
:1045100008700A4908700A4908600A4908600A498F
:1045200008600A4908600A4908707047A808002016
:104530007D0800207E0800208B0800208A080020CB
:10454000640800208C0800207808002074080020EF
:104550007C08002000210A4A1170002004E000219C
:10456000084A1154411CC8B20828F8D30021064A51
:104570001170064A1170064A1160064A11607047B0
:1045800081080020820800207F0800208008002089
:10459000980800209008002070B54FF47C711948ED
:1045A00000F08AF84FF48071174800F085F8002475
:1045B00013E0601CC5B2C4EBC40000EB400011491D
:1045C00001EB8003C5EBC50000EB400001EB80066A
:1045D0005E610EA0D864601CC4B20B2CE9D3C4EB9E
:1045E000C40000EB4000074901EB80030020586144
:1045F00006A0D86400200649086002480549086002
:1046000070BD0000484A0020484900203F000000DB
:104610009C0800209408002000B587B003200021EA
:1046200080220A4BCDE90132CDE903104FF6FF702D
:104630003F23074A00900748FFF766FB06AA06A13A
:104640003F20FFF76BFC07B000BD0000484700208B
:1046500044490020F148000875432F4F532D494924
:104660002049646C6500000000B587B0032000217C
:1046700080220A4BCDE90132CDE903104FF6FE70DE
:104680003E23074A00900748FFF73EFB06AA06A113
:104690003E20FFF743FC07B000BD00004845002066
:1046A000444700203149000875432F4F532D494995
:1046B000205374617400000004E0002200F8012B14
:1046C0004A1E91B20029F8D1704700002DE9F0414F
:1046D00078211048FFF7F0FF00240DE0601C86B23F
:1046E00004EB44000B4901EBC00506EB460001EB6F
:1046F000C0072F60601C84B2042CEFD304EB44008D
:10470000044901EBC0050020286008460249086002
:10471000BDE8F081384E0020A408002010B5002428
:10472000FBF74EFD044613480078F8B912480078AC
:10473000E0B900F02DF811481149097850F821002E
:10474000104908600E4800780F49097888420DD05A
:104750000C480068806B401C0A49096888630B4854
:104760000068401C09490860FBF742FD2046FBF742
:104770002BFD10BD7D0800207E0800204849002048
:1047800080080020980800207F080020640800208E
:104790000649074A1278885C0649095C034A515C5D
:1047A00001EBC001044A117070470000706E0008F0
:1047B0008108002082080020800800202DE9F84FA1
:1047C00005460F4690469946DDE90AAB0020009069
:1047D000FBF7F6FC00903F480468002C74D01834B6
:1047E00054F8040C3B4908600098FBF7EDFC44F8D2
:1047F000187CA576002020766076606144F814BCB1
:1048000044F80CAC44F8108C0C9824F8080C24F8EC
:10481000069C0020E077E810207705F00700E0769E
:10482000217F01208840A077E17E012088406077C9
:1048300000206060E060A0602062A0626062E062D0
:10484000206325A06063183C002606E0002104F1E7
:10485000500040F82610701CC6B2002EF6D020463C
:10486000FFF700FA2046FFF7ABFAFBF7A9FC009030
:104870001A4840F825401A48006860610020A0618D
:104880001748006810B11648006884611448046035
:104890003434A07813490978084312490870207805
:1048A0001149085C6178084314F834190E4A5054D1
:1048B0000E480078401C0D4908700098FBF784FCF6
:1048C0000020BDE8F88FFFE70098FBF77DFC422051
:1048D000F7E70000940800203F000000484900204E
:1048E0009C08002081080020820800208B080020FE
:1048F000002400BF00BFFBF763FC044605480068C6
:10490000401C044908602046FBF75EFCFFF705FBEE
:10491000F1E700008C08002010B504480068FFF79C
:1049200035FBFF20FFF74EFA10BD00009008002075
:10493000002400BF02E0C820FFF730FC19480078CF
:104940000028F8D0184800686421B0FBF1F016493F
:1049500008600846006828B9002014490870FF2044
:10496000FFF7C6FB00BFFBF72BFC044610480068AE
:104970001049086000200E4908602046FBF724FC1F
:104980000C48006808490968B0FBF1F0C0F1640008
:1049900006490870FFF7FBFA00F00EF86420FFF7F5
:1049A000FDFBE0E77C080020740800207008002070
:1049B0008C080020780800207CB5002514E06946AA
:1049C0002846FFF7E5FA064666B9094850F825403B
:1049D00044B1012C06D0D4E9020100EB81006064EF
:1049E0000198A064681CC5B23F2DE8D97CBD0000C9
:1049F0004849002002F0010343B102F002032BB149
:104A000002E0491E002308C00029FAD1704710B502
:104A1000024600230868506248689062D1E90204A7
:104A200020430C6920434C6920430343D06A20F0A3
:104A3000F7001843D062002010BD01460869C0B2DB
:104A400070470146086800F003007047024602F113
:104A5000140043181868704710B50248FDF72EFF80
:104A600010BD0000AC4300200FB410B50446002177
:104A7000DDE903021043059A1043069A1043079A92
:104A80001043089A10430143606847F6FF62904361
:104A900008436060002010BC5DF814FB10B50446AC
:104AA000032020600220FCF755FE002010BD0146C7
:104AB000D1F88000704710B5024600230868906066
:104AC000D1E901042043CC6820430C69204303430F
:104AD000D0686FF30B001843D060002010BD024671
:104AE0000868C2F880000020704770B586B005469F
:104AF0000C4601943720029040200390002004903F
:104B00004FF48060059001A92846FFF7D4FF41F2D9
:104B100088323721284600F0DDF90646304606B0D7
:104B200070BD000070B586B005460C460B482043AA
:104B300001902920029040200390002004904FF41F
:104B40008060059001A92846FFF7B5FF284600F0D0
:104B5000C9FA0646304606B070BD0000000010805D
:104B600070B586B005460C46019410200290402096
:104B70000390002004904FF48060059001A928461E
:104B8000FFF799FF41F288321021284600F0A2F980
:104B90000646304606B070BD70B586B005460C4678
:104BA00001940620029040200390002004904FF4CE
:104BB0008060059001A92846FFF77DFF41F2883209
:104BC0000621284600F086F90646304606B070BD3C
:104BD00030B585B00446002000900190029003900B
:104BE0004FF48060049069462046FFF764FF20463A
:104BF00000F050F90546284605B030BD30B585B007
:104C000004464FF4D5700090082001904020029097
:104C1000002003904FF48060049069462046FFF71F
:104C20004AFF204600F0E6FA0546284605B030BDAA
:104C300070B586B005460C460194122002904020C3
:104C40000390002004904FF48060059001A928464D
:104C5000FFF731FF41F288321221284600F03AF97D
:104C60000646304606B070BD70B586B005460C46A7
:104C700001941120029040200390002004904FF4F2
:104C80008060059001A92846FFF715FF41F28832A0
:104C90001121284600F01EF90646304606B070BDC8
:104CA000F0B585B0064614461D46009407200190D5
:104CB00040200290002003904FF4806004906946E9
:104CC0003046FFF7F8FE41F288320721304600F007
:104CD00001F90746384605B0F0BD30B585B0044649
:104CE0000020009002200190C0200290002003903C
:104CF0004FF48060049069462046FFF7DCFE2046B2
:104D000000F0BEF90546284605B030BD70B586B046
:104D100005460C46019409200290C0200390002013
:104D200004904FF48060059001A92846FFF7C3FE68
:104D3000284600F0A5F90646304606B070BD30B5ED
:104D400085B004460020009033200190402002905E
:104D5000002003904FF48060049069462046FFF7DE
:104D6000AAFE41F288323321204600F0B3F805460E
:104D7000284605B030BD70B586B005460C46019496
:104D80000D20029040200390002004904FF480609A
:104D9000059001A92846FFF78EFE41F288320D21C9
:104DA000284600F097F80646304606B070BD70B54C
:104DB00086B005460C46002001900320029040205A
:104DC0000390002004904FF48060059001A92846CC
:104DD000FFF771FE22460321284600F0AFF9064690
:104DE000304606B070BD000030B585B004460020E6
:104DF00000900C20019040200290002003904FF47E
:104E00008060049069462046FFF755FE044A0C2155
:104E1000204600F05FF80546284605B030BD00008A
:104E200000E1F50570B586B005460C4601941920E1
:104E3000029040200390002004904FF48060059081
:104E400001A92846FFF737FE41F28832192128468A
:104E500000F040F80646304606B070BD70B586B02A
:104E600005460C4601941820029040200390002033
:104E700004904FF48060059001A92846FFF71BFEBF
:104E800041F288321821284600F024F806463046C0
:104E900006B070BD01460E480068C0084FF47A7332
:104EA000B0FBF3F041F2883300FB03F200BF101EA9
:104EB000A2F1010202D14FF000407047486B00F0B0
:104EC00080000028F3D0C52088630020F5E70000AB
:104ED000600800202DE9F04305460F4690466648DD
:104EE0000068C0084FF47A71B0FBF1F000FB08F9DC
:104EF00000BFB9F10000A9F1010903D14FF0004052
:104F0000BDE8F0836E6B06F045000028F1D006F492
:104F100000600028EDD1686B00F0040010B104209F
:104F2000A863EDE7686B00F0010010B10120A863F1
:104F3000E6E7C520A8632846FFF77FFDB84201D009
:104F40000120DDE700212846FFF780FD04464B489D
:104F5000204008B90020D3E704F00040B0F1004F32
:104F600002D14FF00070CBE704F08040B0F1804FE9
:104F700001D14020C4E704F00050B0F1005F01D13E
:104F80008020BDE704F08050B0F1805F02D14FF483
:104F90008070B5E704F00060B0F1006F02D14FF40B
:104FA0000070ADE704F08060B0F1806F02D14FF483
:104FB0008060A5E704F08070B0F1807F02D14FF4EB
:104FC00000609DE704F40000B0F5000F02D14FF43B
:104FD000805095E704F48000B0F5800F02D14FF4C3
:104FE00000508DE704F40010B0F5001F02D14FF41B
:104FF000804085E704F48010B0F5801F02D14FF4A3
:1050000000407DE704F48020B0F5802F02D14FF4FA
:10501000003075E704F40030B0F5003F02D14FF4E2
:1050200080206DE704F48030B0F5803F02D14FF46A
:10503000002065E704F40040B0F5004F02D14FF4C2
:1050400080105DE704F48040B0F5804F02D14FF44A
:10505000001055E704F40050B0F5005F02D14FF4A2
:1050600080004DE704F00800082801D1000547E75B
:105070004FF4803044E700006008002008E0FFFDA6
:1050800010B5014616480068C0084FF47A74B0FBAA
:10509000F4F041F2883400FB04F300BF181EA3F1C2
:1050A000010302D14FF0004010BD4A6B02F04500F1
:1050B0000028F3D002F400600028EFD1486B00F024
:1050C000040010B104208863EEE7486B00F0010093
:1050D00010B101208863E7E7C52088630020E3E77B
:1050E0006008002010B5014613480068C0084FF45E
:1050F0007A74B0FBF4F041F2883400FB04F300BF93
:10510000181EA3F1010302D14FF0004010BD4A6BFD
:1051100002F045000028F3D002F400600028EFD12F
:10512000486B00F0040010B104208863EEE7C5204E
:1051300088630020EAE70000600800202DE9F043C2
:1051400004460F4690462A480068C0084FF47A711A
:10515000B0FBF1F041F2883100FB01F900BFB9F179
:105160000000A9F1010903D14FF00040BDE8F08330
:10517000666B06F045000028F1D006F400600028B8
:10518000EDD1606B00F0040010B10420A063EDE7E6
:10519000606B00F0010010B10120A063E6E720463B
:1051A000FFF74BFCB84201D00120DFE7C520A06328
:1051B00000212046FFF74AFC054605F4604020B96F
:1051C000280CA8F800000020D0E705F48040B0F5D6
:1051D000804F02D14FF40050C8E705F40040B0F50D
:1051E000004F02D14FF48050C0E74FF48030BDE74C
:1051F0006008002010B5014618480068C0084FF448
:105200007A74B0FBF4F041F2883400FB04F300BF81
:10521000181EA3F1010302D14FF0004010BD4A6BEC
:1052200002F045000028F3D002F400600028EFD11E
:10523000486B00F0040010B104208863EEE7486B6F
:1052400000F0010010B101208863E7E7486B00F02F
:10525000400008B1402088630020DFE7600800209C
:1052600010B50446012007490870FBF7AFFC28B9C8
:105270000448007820F001000249087001480078D5
:1052800010BD00004B08002070B50546AC6B40F225
:105290003A50216888632046FDF7FDFA0646012052
:1052A00084F8340000202063062E01D0052E05D19D
:1052B0002068FFF799FDA16B0843A063A06B18B9A4
:1052C0002046FDF797F902E02046FDF7EBF970BDA7
:1052D00070B50546AC6B40F23A50216888632046B1
:1052E000FDF7D9FA0646012084F834000020206337
:1052F000062E01D0052E05D12068FFF775FDA16BA4
:105300000843A063A06B18B92046FDF773F902E0CB
:105310002046FDF7C7F970BD2DE9F04389B004467A
:105320000F46FCF739FB81464FF000080020019042
:1053300002903E4608212068FFF712FC05461DB189
:10534000284609B0BDE8F0835022125B11042068A2
:10535000FFF7CBFB05460DB12846F2E74FF0FF30D3
:105360000390082004903020059002200690002031
:1053700007900120089003A92068FFF748FB2068E8
:10538000FFF7DDFC05460DB12846DAE715E0206899
:10539000406B00F4001038B12068FFF788FB01A9CA
:1053A00041F8280008F10108FCF7F6FAA0EB090023
:1053B000401C10B94FF00040C3E72068406B40F23A
:1053C0002A4108400028E2D02068406B00F0080025
:1053D00018B1082021688863B3E72068406B00F0AB
:1053E000020018B1022021688863AAE72068406B98
:1053F00000F0200018B1202021688863A1E740F266
:105400003A502168886302980006029901F47F41AE
:1054100040EA0120029901F47F0140EA112002993B
:1054200040EA11603060361D01980006019901F4D0
:105430007F4140EA0120019901F47F0140EA1120F7
:10544000019940EA1160306000207AE730B58FB0F2
:105450000446012003902068FFF7F3FA18B94FF0D3
:1054600080600FB030BD606C03281BD02068FFF750
:1054700034FC05460DB12846F3E700212068FFF70C
:10548000E5FA606704212068FFF7E0FAA0670821C9
:105490002068FFF7DBFAE0670C212068FFF7D6FAF7
:1054A00080210851606C032807D003A92068FFF70A
:1054B0007EFC05460DB12846D3E7606C032820D05A
:1054C000BDF80C1021655022125B11042068FFF713
:1054D0001DFC05460DB12846C3E700212068FFF7F3
:1054E000B5FA606604212068FFF7B0FAA0660821CB
:1054F0002068FFF7ABFAE0660C212068FFF7A6FAF8
:10550000206704212068FFF7A1FA010DE16404A9D6
:105510002046FDF7C9F810B14FF08050A1E75020A8
:10552000005B01040A4600232068FFF7B9FB05462B
:105530000DB1284695E7D4E90412A069CDE900121F
:10554000029094E80F00FFF78FFA002089E700002F
:10555000F8B5044600200090002600272068FFF7D9
:1055600037FB05460DB12846F8BD2068FFF746FB1E
:10557000054645B10021A1642068FFF729FB0546D7
:105580001DB12846F0E70121A164A06C012808D1D3
:1055900000212068FFF7A9FA054615B14FF08050A9
:1055A000E2E71DE000212068FFF79FFA05460DB1F4
:1055B0002846D9E718492068FFF7B4FA054615B11F
:1055C0004FF08050D0E700212068FFF73FFA0646F1
:1055D000012080EAD67080F001070098401C0090FE
:1055E0004FF6FF710098884201D2002FDAD04FF6B3
:1055F000FF710098884202D34FF08070B4E706F044
:105600008040B0F1804F02D10120606401E00020B1
:1056100060640020A8E70000000010C12DE9F041FF
:105620000546AC6AEF6AE7B14FF0000814E028685D
:10563000FFF73DFA06462670641C7F1E300A207074
:10564000641C7F1E300C2070641C7F1E300E207086
:10565000641C7F1E08F10108B8F1080FE7D3AC62A3
:10566000EF62BDE8F08170B504460D4615B94FF004
:10567000006070BD5022125B11042068FFF77BFBB5
:1056800006460EB13046F4E700212068FFF7DEF948
:1056900028600020EDE77CB50446002000900190D2
:1056A00000212068FFF7D2F900F00070B0F1007F10
:1056B00002D14FF400607CBD69462046FFF72CFE06
:1056C00005460DB12846F6E7019800F4803098B100
:1056D0005022125B11042068FFF707FA05460DB14E
:1056E0002846E8E700212068FFF756FA05460DB185
:1056F0002846E0E70020DEE74FF08060DBE77CB57E
:10570000044600200090019000212068FFF79EF9D8
:1057100000F00070B0F1007F02D14FF400607CBD5A
:1057200069462046FFF7F8FD05460DB12846F6E725
:10573000019800F4802098B15022125B1104206877
:10574000FFF7D3F905460DB12846E8E702212068A6
:10575000FFF722FA05460DB12846E0E70020DEE714
:105760004FF08060DBE7F8B505462C6A6E6A1EB321
:1057700000271DE020780090641C761E2078009998
:1057800041EA00200090641C761E2078009941EACE
:1057900000400090641C761E2078009941EA006069
:1057A0000090641C761E69462868FFF798F97F1CF4
:1057B000082FDFD32C626E62F8BD000010B50446DE
:1057C000012006490870FBF70DFA20B92046FFF7C3
:1057D00047FD024908700148007810BD4B080020C1
:1057E000F0B589B007460D461446012616480078E4
:1057F00000F0010010B1032009B0F0BD35B1012D5A
:1058000006D0022D0BD0032D18D10FE0002617E093
:1058100001A8FBF7D1F907982060002610E001A845
:10582000FBF7CAF908982080002609E001A8FBF7D9
:10583000C3F90898400A2060002601E0042600BF52
:1058400000BF3046D8E700004B0800202DE9F041AA
:1058500080460C4615461E460127BB1E3246294689
:105860002046FBF7DDF928B900BFFBF7AFF90028A8
:10587000FBD100273846BDE8F08110B5044620462C
:10588000FFF7EEFC10BD2DE9F04180460C461546B1
:105890001E460127BB1E324629462046FBF7DAF991
:1058A00028B900BFFBF792F90028FBD10027384642
:1058B000BDE8F08170474168491E41604168002998
:1058C00001DA0021416001784170704710B5FCF7A2
:1058D00047FAFEF7E7F8FEF7CDFCFEF7F5F810BD46
:1058E00000B593B0302107A8FAF706FD142102A8ED
:1058F000FAF702FD00BF002001902548006840F043
:105900008050234908600846006800F080500190EC
:1059100000BF00BF00BF002001901E48006840F497
:1059200080401C4908600846006800F480400190EF
:1059300000BF00BF0220079001200A9010200B90AA
:1059400002200D9000210E9108210F91A8211091A5
:10595000022111910721129107A8FCF707FC08B159
:10596000FBF722FA0F2002900220039000200490FF
:105970004FF4A05005904FF480500690052102A8E6
:10598000FCF7C4FA08B1FBF70FFA13B000BD000032
:1059900040380240007000400548006840F4700044
:1059A000034908604FF00060014980390860704782
:1059B00088ED00E000BFFEE701B584B0642001215E
:1059C00004AA0B46CDE9002102900022782102486A
:1059D000FCF7D0F805B000BD5843002001B584B0F5
:1059E0006420012104AA0B46CDE900210290402247
:1059F00078210248FCF7BEF805B000BD58430020EE
:105A00000FB4084B10B504A902AA039800F0FAF8E5
:105A1000044602A9002000F08CFC204610BC5DF872
:105A200014FB00003363000802480068C0F3022042
:105A3000704700000CED00E010B5002804DB0A07F9
:105A4000130E054A135406E00A07140E034A00F029
:105A50000F031B1FD45410BD00E400E018ED00E05C
:105A600002E008C8121F08C1002AFAD17047704727
:105A7000002001E001C1121F002AFBD17047000085
:105A80002DE9FF5F82B00021DDE90430020DDDF871
:105A900040B0034318D044F61050A2F2FF32424304
:105AA0001514119801281FD0A5EB0B00401C5FEACC
:105AB000000A4FF000064E4FDFF83891B0465046CE
:105AC00015D5CAF1000413E0119801244AA3012856
:105AD00001D16FEA0B010298119AC0E90031C0E9C7
